:100000000C94BE0A0C94E60A0C94E60A0C94E60AD8
:100010000C94E60A0C94E60A0C94E60A0C94E60AA0
:100020000C94E60A0C94E60A0C9471210C94EA21D3
:100030000C94E60A0C94E60A0C94E60A0C94E60A80
:100040000C94E60A0C94E60A0C94E60A0C94E60A70
:100050000C94E60A0C94E60A0C94E60A0C944D24DF
:100060000C94E60A0C94E60A0C94E60A0C94E60A50
:100070000C94E60A0C94E60A0C94E60A0C94E60A40
:100080000C94E60A0C94E60A0C94E60A0C94E60A30
:100090000C94E60A0C94E60A0C94E60A0C94E60A20
:1000A0000C94E60A0C94E60A0C94E60A85009D007E
:1000B0003600A6000000006EF3BF9A06F6DEB20618
:1000C000F2F3B706FAFBD10600000002F3BF9A066E
:1000D000F6DEB206F2F3B706FAFBD1060000000422
:1000E000F3BF9A06F6DEB206F2F3B706FAFBD106C4
:1000F00000000002F3BF9A06F6DEB206F2F3B7067E
:10010000FAFBD10600000004F3BF9A06F6DEB20641
:10011000F2F3B706FAFBD10600000002F3BF9A061D
:10012000F6DEB206F2F3B706FAFBD10600000004D1
:10013000F3BF9A06F6DEB206F2F3B706FAFBD10673
:1001400000000002F3BF9A06F6DEB206F2F3B7062D
:10015000FAFBD1060000000CF6DEB2040000000E2F
:10016000F3BF9A0400000010FAFBD1040000000C59
:10017000F6DEB2040000000EF3BF9A040000001087
:10018000FAFBD1040000000CF6DEB2040000000E01
:10019000F3BF9A0400000010FAFBD1040000000C29
:1001A000F6DEB2040000000EF3BF9A040000001057
:1001B000FAFBD1040000000CF6DEB2040000000ED1
:1001C000F3BF9A0400000010FAFBD1040000000CF9
:1001D000F6DEB2040000000EF3BF9A040000001027
:1001E000FAFBD1040000000CF6DEB2040000000EA1
:1001F000F3BF9A0400000010FAFBD1040000000CC9
:10020000F6DEB2040000000EF3BF9A0400000010F6
:10021000FAFBD1040000000AF6DEB206F2F3B702E0
:100220000000000CF3BF9A0400000010FAFBD10498
:100230000000000AF6DEB206F2F3B7020000000C7E
:10024000F3BF9A0400000010FAFBD1040000000480
:10025000F3BF9A06F6DEB20200000004F2F3B7061E
:10026000FAFBD10600000002F3BF9A040000001060
:10027000FAFBD10400000004F3BF9A06F6DEB202D6
:1002800000000004F2F3B706FAFBD10600000002FA
:10029000F3BF9A0400000010FAFBD1040000000430
:1002A000F3BF9A0600000008F2F3B704FAFBD10688
:1002B00000000002F3BF9A0400000010FAFBD10412
:1002C00000000004F3BF9A0600000008F2F3B70430
:1002D000FAFBD10600000002F3BF9A0400000010F0
:1002E000FAFBD10400000022F3BF9A02F6DEB20648
:1002F000F2F3B706FAFBD10200000026F3BF9A0220
:10030000F6DEB206F2F3B706FAFBD10200000008EF
:10031000F3BF9A06F6DEB206F2F3B706FAFBD10691
:1003200000000006F3BF9A02F6DEB206F2F3B7064B
:10033000FAFBD10200000008F3BF9A06F6DEB2060F
:10034000F2F3B706FAFBD10600000006F3BF9A02EB
:10035000F6DEB206F2F3B706FAFBD102000000089F
:10036000F3BF9A06F6DEB206F2F3B706FAFBD10641
:100370000000001EF3BF9A06F6DEB206F2F3B706DF
:10038000FAFBD10600000038F3BF9A06F6DEB2068B
:10039000F2F3B706FAFBD10200000022F3BF9A067F
:1003A000F6DEB206F2F3B706FAFBD102000000084F
:1003B000F3BF9A040000000AF2F3B704FAFBD1027B
:1003C00000000006F3BF9A06F6DEB206F2F3B706A7
:1003D000FAFBD10200000008F3BF9A040000000AF3
:1003E000F2F3B704FAFBD10200000006F3BF9A064D
:1003F000F6DEB206F2F3B706FAFBD10200000008FF
:10040000F3BF9A0400000008F2F3B706FAFBD10428
:100410000000000EF6DEB202F2F3B70200000006A2
:10042000FAFBD10400000004F3BF9A0400000008A6
:10043000F2F3B706FAFBD1040000000EF6DEB202BA
:10044000F2F3B70200000006FAFBD104000000043A
:10045000F3BF9A0400000006F6DEB202F2F3B7061C
:10046000FAFBD1060000000CF6DEB202F2F3B7028E
:1004700000000006FAFBD10400000004F3BF9A0458
:1004800000000006F6DEB202F2F3B706FAFBD10670
:100490000000000CF6DEB202F2F3B7020000000624
:1004A000FAFBD10400000004F3BF9A040000000628
:1004B000F6DEB202F2F3B70200000006FAFBD10446
:1004C0000000000CF6DEB202F2F3B70200000006F4
:1004D000FAFBD10400000004F3BF9A0400000006F8
:1004E000F6DEB202F2F3B70200000006FAFBD10416
:1004F0000000000CF6DEB202F2F3B70200000006C4
:10050000FAFBD10400000004F3BF9A0400000006C7
:10051000F6DEB202F2F3B70200000006FAFBD104E5
:100520000000000CF6DEB202F2F3B7020000000693
:10053000FAFBD10400000004F3BF9A040000000697
:10054000F6DEB202F2F3B70200000006FAFBD104B5
:100550000000000CF6DEB202F2F3B7020000000663
:10056000FAFBD10400000004F3BF9A040000000667
:10057000F6DEB202F2F3B70200000006FAFBD10485
:100580000000000CF6DEB202F2F3B7020000000633
:10059000FAFBD10400000004F3BF9A040000000637
:1005A000F6DEB202F2F3B70200000006FAFBD10455
:1005B0000000000CF6DEB202F2F3B7020000000603
:1005C000FAFBD10400000004F3BF9A06F6DEB2067F
:1005D000F2F3B70200000006FAFBD1040000000CA1
:1005E000F6DEB202F2F3B70200000006FAFBD10415
:1005F00000000004F3BF9A06F6DEB206F2F3B7027B
:1006000000000006FAFBD1040000000CF6DEB20286
:10061000F2F3B70200000006FAFBD1040000000666
:10062000F3BF9A04F6DEB20600000008FAFBD1041C
:1006300000000002F3BF9A06F6DEB206F2F3B70638
:10064000FAFBD1020000000AF3BF9A04F6DEB206FC
:1006500000000008FAFBD10400000002F3BF9A0674
:10066000F6DEB206F2F3B706FAFBD1020000000C88
:10067000F3BF9A02F6DEB2040000000AFAFBD104CE
:1006800000000002F3BF9A06F6DEB206F2F3B706E8
:10069000FAFBD1020000000CF3BF9A02F6DEB204AE
:1006A0000000000AFAFBD10400000002F3BF9A0622
:1006B000F6DEB206F2F3B706FAFBD10200000078CC
:1006C000F3BF9A02F6DEB206F2F3B706FAFBD102E6
:1006D00000000006F3BF9A06F6DEB206F2F3B70694
:1006E000FAFBD10600000008F3BF9A02F6DEB2065C
:1006F000F2F3B706FAFBD10200000006F3BF9A0638
:10070000F6DEB206F2F3B706FAFBD10600000008E7
:10071000F3BF9A02F6DEB206F2F3B706FAFBD10295
:1007200000000006F3BF9A06F6DEB206F2F3B70643
:10073000FAFBD10600000008F3BF9A02F6DEB2060B
:10074000F2F3B706FAFBD10200000006F3BF9A06E7
:10075000F6DEB206F2F3B706FAFBD106000000049B
:10076000F3BF9A0400000010FAFBD104000000025D
:10077000F3BF9A0400000010FAFBD104000000044B
:10078000F3BF9A0400000010FAFBD104000000023D
:10079000F3BF9A0400000010FAFBD104000000042B
:1007A000F3BF9A0400000010FAFBD104000000021D
:1007B000F3BF9A0400000010FAFBD104000000040B
:1007C000F3BF9A0400000010FAFBD10400000002FD
:1007D000F3BF9A0400000010FAFBD10400000004EB
:1007E000F3BF9A0400000010FAFBD10400000002DD
:1007F000F3BF9A0400000010FAFBD10400000004CB
:10080000F3BF9A0400000010FAFBD10400000002BC
:10081000F3BF9A0400000010FAFBD10400000004AA
:10082000F3BF9A0400000010FAFBD104000000029C
:10083000F3BF9A0400000010FAFBD104000000048A
:10084000F3BF9A0400000010FAFBD104000000027C
:10085000F3BF9A0400000010FAFBD104000000046A
:10086000F3BF9A0400000010FAFBD104000000025C
:10087000F3BF9A0400000010FAFBD104000000044A
:10088000F3BF9A0400000010FAFBD104000000023C
:10089000F3BF9A0400000010FAFBD104000000042A
:1008A000F3BF9A0400000010FAFBD104000000021C
:1008B000F3BF9A0400000010FAFBD104000000040A
:1008C000F3BF9A0400000010FAFBD10400000002FC
:1008D000F3BF9A0400000010FAFBD10400000004EA
:1008E000F3BF9A0400000010FAFBD10400000002DC
:1008F000F3BF9A0400000010FAFBD10400000004CA
:10090000F3BF9A0400000010FAFBD10400000002BB
:10091000F3BF9A0400000010FAFBD104000000228B
:10092000F3BF9A02F6DEB206F2F3B706FAFBD10283
:1009300000000026F3BF9A02F6DEB206F2F3B70615
:10094000FAFBD10200000008F3BF9A06F6DEB206F9
:10095000F2F3B706FAFBD10600000006F3BF9A02D5
:10096000F6DEB206F2F3B706FAFBD1020000000889
:10097000F3BF9A06F6DEB206F2F3B706FAFBD1062B
:1009800000000006F3BF9A02F6DEB206F2F3B706E5
:10099000FAFBD10200000008F3BF9A06F6DEB206A9
:1009A000F2F3B706FAFBD1060000001EF3BF9A0669
:1009B000F6DEB206F2F3B706FAFBD1060000002617
:1009C000F6DEB2040000000EF3BF9A06F6DEB206B1
:1009D000F2F3B706FAFBD1060000000CF6DEB20413
:1009E0000000000EF3BF9A06F6DEB206F2F3B70679
:1009F000FAFBD1060000000CF6DEB2040000000E87
:100A0000F3BF9A06F6DEB206F2F3B706FAFBD1069A
:100A10000000000CF6DEB2040000000EF3BF9A06E0
:100A2000F6DEB206F2F3B706FAFBD1060000000CC0
:100A3000F6DEB2040000000EF3BF9A0400000010BE
:100A4000FAFBD1040000000CF6DEB2040000000E38
:100A5000F3BF9A0400000010FAFBD1040000000C60
:100A6000F6DEB2040000000EF3BF9A04000000108E
:100A7000FAFBD1040000000CF6DEB2040000000E08
:100A8000F3BF9A0400000010FAFBD1040000000C30
:100A9000F6DEB2040000000EF3BF9A04000000105E
:100AA000FAFBD1040000000CF6DEB2040000000ED8
:100AB000F3BF9A0400000010FAFBD1040000000C00
:100AC000F6DEB2040000000EF3BF9A04000000102E
:100AD000FAFBD1040000000CF6DEB2040000000EA8
:100AE000F3BF9A0400000010FAFBD10400000004D8
:100AF000F3BF9A06F6DEB206F2F3B706FAFBD106AA
:100B000000000002F3BF9A0400000010FAFBD104B9
:100B100000000004F3BF9A06F6DEB206F2F3B70651
:100B2000FAFBD10600000002F3BF9A040000001097
:100B3000FAFBD10400000004F3BF9A06F6DEB20609
:100B4000F2F3B706FAFBD10600000002F3BF9A04E5
:100B500000000010FAFBD10400000004F3BF9A0665
:100B6000F6DEB206F2F3B706FAFBD1060000000289
:100B7000F3BF9A0400000010FAFBD1040000001E2D
:100B8000F3BF9A0400000010FAFBD1040000001E1D
:100B9000F3BF9A0400000010FAFBD1040000000427
:100BA000F3BF9A06F6DEB206F2F3B706FAFBD106F9
:100BB00000000006F3BF9A02F6DEB206F2F3B706B3
:100BC000FAFBD10200000008F3BF9A06F6DEB20677
:100BD000F2F3B706FAFBD10600000006F3BF9A0253
:100BE000F6DEB206F2F3B706FAFBD1020000000807
:100BF000F3BF9A06F6DEB206F2F3B706FAFBD106A9
:100C000000000006F3BF9A02F6DEB206F2F3B70662
:100C1000FAFBD10200000008F3BF9A06F6DEB20626
:100C2000F2F3B706FAFBD10600000006F3BF9A0202
:100C3000F6DEB206F2F3B706FAFBD10200000008B6
:100C4000F3BF9A0400000010FAFBD1040000001E5C
:100C5000F3BF9A0400000010FAFBD1040000001E4C
:100C6000F3BF9A0400000010FAFBD1040000000258
:100C7000F3BF9A06F6DEB206F2F3B706FAFBD10628
:100C800000000004F3BF9A0400000010FAFBD10436
:100C900000000002F3BF9A06F6DEB206F2F3B706D2
:100CA000FAFBD10600000004F3BF9A040000001014
:100CB000FAFBD10400000002F3BF9A06F6DEB2068A
:100CC000F2F3B706FAFBD10600000004F3BF9A0462
:100CD00000000010FAFBD10400000002F3BF9A06E6
:100CE000F6DEB206F2F3B706FAFBD1060000000406
:100CF000F3BF9A0400000010FAFBD10400000002C8
:100D0000F3BF9A0400000006F6DEB202F2F3B70267
:100D100000000006FAFBD10400000004F3BF9A04AF
:100D200000000010FAFBD10400000002F3BF9A0497
:100D300000000006F6DEB202F2F3B7020000000681
:100D4000FAFBD10400000004F3BF9A040000001075
:100D5000FAFBD10400000002F3BF9A040000000671
:100D6000F6DEB202F2F3B70200000006FAFBD1048D
:100D700000000004F3BF9A0400000010FAFBD10445
:100D800000000002F3BF9A0400000006F6DEB20283
:100D9000F2F3B70200000006FAFBD10400000004E1
:100DA000F3BF9A0400000010FAFBD1040000000217
:100DB000F3BF9A0400000006F6DEB202F2F3B702B7
:100DC00000000006FAFBD10400000004F3BF9A04FF
:100DD00000000010FAFBD10400000002F3BF9A04E7
:100DE00000000006F6DEB202F2F3B70200000006D1
:100DF000FAFBD10400000004F3BF9A0400000010C5
:100E0000FAFBD10400000002F3BF9A0400000006C0
:100E1000F6DEB202F2F3B70200000006FAFBD104DC
:100E200000000004F3BF9A0400000010FAFBD10494
:100E300000000002F3BF9A0400000006F6DEB202D2
:100E4000F2F3B70200000006FAFBD104000000082C
:100E5000F3BF9A02F6DEB206F2F3B706FAFBD1024E
:100E600000000006F3BF9A0400000006F6DEB2029E
:100E7000F2F3B70200000006FAFBD10400000008FC
:100E8000F3BF9A02F6DEB206F2F3B706FAFBD1021E
:100E900000000006F3BF9A0400000006F6DEB2026E
:100EA000F2F3B70200000006FAFBD10400000008CC
:100EB000F3BF9A02F6DEB206F2F3B706FAFBD102EE
:100EC00000000006F3BF9A0400000006F6DEB2023E
:100ED000F2F3B70200000006FAFBD104000000089C
:100EE000F3BF9A02F6DEB206F2F3B706FAFBD102BE
:100EF00000000006F3BF9A0400000006F6DEB2020E
:100F0000F2F3B70200000006FAFBD1040000001E55
:100F1000F3BF9A0400000010FAFBD1040000001E89
:100F2000F3BF9A0400000010FAFBD1040000000493
:100F3000F3BF9A06F6DEB206F2F3B706FAFBD10665
:100F40000000001EF3BF9A06F6DEB206F2F3B70603
:100F5000FAFBD1060000001EF3BF9A06F6DEB206C9
:100F6000F2F3B706FAFBD10600000002F3BF9A06BF
:100F7000F6DEB206F2F3B706FAFBD1060000000473
:100F8000F3BF9A06F6DEB206F2F3B706FAFBD10615
:100F900000000002F3BF9A06F6DEB206F2F3B706CF
:100FA000FAFBD10600000004F3BF9A04000000061B
:100FB000F6DEB202F2F3B70200000006FAFBD1043B
:100FC00000000002F3BF9A06F6DEB206F2F3B7069F
:100FD000FAFBD10600000004F3BF9A0400000006EB
:100FE000F6DEB202F2F3B70200000006FAFBD1040B
:100FF00000000002F3BF9A06F6DEB206F2F3B7066F
:10100000FAFBD10600000004F3BF9A0400000006BA
:10101000F6DEB202F2F3B70200000006FAFBD104DA
:1010200000000002F3BF9A0400000018F3BF9A0406
:1010300000000006F6DEB202F2F3B702000000067E
:10104000FAFBD10400000002F3BF9A04000000186C
:10105000F3BF9A0400000006F6DEB202F2F3B70214
:1010600000000006FAFBD10400000002F3BF9A045E
:1010700000000018F3BF9A0400000006F6DEB2027A
:10108000F2F3B70200000006FAFBD10400000002F0
:10109000F3BF9A0400000018F3BF9A040000000692
:1010A000F6DEB202F2F3B70200000006FAFBD1044A
:1010B00000000002F3BF9A0400000018F3BF9A0476
:1010C00000000006F6DEB202F2F3B70200000006EE
:1010D000FAFBD10400000002F3BF9A0400000018DC
:1010E000F3BF9A0400000006F6DEB202F2F3B70284
:1010F00000000006FAFBD10400000002F3BF9A04CE
:1011000000000018F3BF9A0400000006F6DEB202E9
:10111000F2F3B70200000006FAFBD104000000025F
:10112000F3BF9A0400000018F3BF9A040000000601
:10113000F6DEB202F2F3B70200000006FAFBD104B9
:1011400000000002F3BF9A0400000018F3BF9A04E5
:1011500000000006F6DEB202F2F3B702000000065D
:10116000FAFBD10400000002F3BF9A04000000184B
:10117000F3BF9A0400000010FAFBD1040000000243
:10118000F3BF9A0400000018F3BF9A040000001097
:10119000FAFBD10400000002F3BF9A0400000084AF
:1011A000F3BF9A0CF6DEB20400000012F2F3B702AD
:1011B000FAFBD10A00000008F3BF9A0CF6DEB20475
:1011C00000000012F2F3B702FAFBD10A0000000897
:1011D000F3BF9A0CF6DEB20600000010F2F3B7027D
:1011E000FAFBD10C00000006F3BF9A0CF6DEB20643
:1011F00000000010F2F3B702FAFBD10C0000000669
:10120000F3BF9A0CF6DEB2080000000EF2F3B7024C
:10121000FAFBD10E00000004F3BF9A0CF6DEB20810
:101220000000000EF2F3B702FAFBD10E000000043A
:10123000F3BF9A0CF6DEB20A0000000CF2F3B7021C
:10124000FAFBD10E00000004F3BF9A0CF6DEB20ADE
:101250000000000CF2F3B702FAFBD10E000000040C
:10126000F3BF9A0CF6DEB20C0000000AF2F3B702EC
:10127000FAFBD10E00000004F3BF9A0CF6DEB20CAC
:101280000000000AF2F3B702FAFBD10E00000004DE
:10129000F3BF9A0CF6DEB20CF2F3B70200000008BE
:1012A000F2F3B702FAFBD10E00000004F3BF9A0C70
:1012B000F6DEB20CF2F3B70200000008F2F3B70258
:1012C000FAFBD10E00000004F3BF9A0C00000002EC
:1012D000F6DEB20AF2F3B70400000008FAFBD10E02
:1012E00000000004F3BF9A0C00000002F6DEB20A10
:1012F000F2F3B70400000008FAFBD10E000000046E
:10130000F3BF9A0C00000004F6DEB208F2F3B70651
:1013100000000008FAFBD10C00000004F3BF9A0C97
:1013200000000004F6DEB208F2F3B7060000000881
:10133000FAFBD10C00000004F3BF9A0C0000000679
:10134000F6DEB206F2F3B70800000006FAFBD10C95
:1013500000000004F3BF9A0C00000006F6DEB2069F
:10136000F2F3B70800000006FAFBD10C00000004FD
:10137000F3BF9A0C00000008F6DEB204F2F3B70ADD
:1013800000000002FAFBD10E00000004F3BF9A0C2B
:1013900000000008F6DEB204F2F3B70A0000000213
:1013A000FAFBD10E00000004F3BF9A0C0000000A03
:1013B000F6DEB202F2F3B70CFAFBD10E0000000425
:1013C000F3BF9A0C0000000AF6DEB202F2F3B70C8B
:1013D000FAFBD10E00000004F3BF9A0C0000000CD1
:1013E000F2F3B70CFAFBD10E00000004F3BF9A0C25
:1013F0000000000CF2F3B70CFAFBD10E0000000461
:10140000F3BF9A0C0000000EF2F3B70AFAFBD10EFC
:1014100000000004F3BF9A0C0000000EF2F3B70ABC
:10142000FAFBD10E00000004F3BF9A0C000000107C
:10143000F2F3B708FAFBD10C00000006F3BF9A0CD8
:1014400000000010F2F3B708FAFBD10C0000000610
:10145000F3BF9A0C00000012F2F3B706FAFBD10AB0
:1014600000000008F3BF9A0C00000012F2F3B70668
:10147000FAFBD10A00000072070605040100080A01
:101480000B0C0D0900000000240027002A002D008D
:10149000300000000000250028002B002E00310045
:1014A000000000002300260029002C002F00040467
:1014B00004040403040502020202040302020202FD
:1014C00006060606060604040202020404040802D4
:1014D00001104080401020408040800802040180BC
:1014E0004020100201108010204040200000000227
:1014F00000090F0000030401000C000000000000C0
:1015000000000000000000000000080B00020202C2
:10151000010009040000010202000005240010017E
:101520000524010101042402060524060001070523
:10153000810310004009040100020A0000000705B1
:101540000202400000070583024000000403090472
:1015500012010002EF020140C016DD270001010266
:1015600003015A65726F424F590064616464656C8F
:101570006B697363686465203200972411241FBE71
:10158000CFEFDAE0DEBFCDBF11E0A0E0B1E0ECE9E3
:10159000F1E602C005900D92AA36B107D9F723E013
:1015A000AAE6B1E001C01D92AD3EB207E1F71AE034
:1015B000CEEBDAE004C02197FE010E94842FCD3BE0
:1015C000D107C9F70E9441260C94CC300C9400003E
:1015D0005C985F985C9A5F9A5C989BB19F76292F84
:1015E000206887FF9BB95C9A2BB986FF9BB95C9AF0
:1015F0002BB985FF9BB95C9A2BB984FF9BB95C9A88
:101600002BB983FF9BB95C9A2BB982FF9BB95C9A7B
:101610002BB981FF9BB95C9A2BB980FF9BB95C9A6F
:101620002BB908955C985F9A5C9A5C989BB19F7601
:10163000292F206887FF9BB95C9A2BB986FF9BB93D
:101640005C9A2BB985FF9BB95C9A2BB984FF9BB937
:101650005C9A2BB983FF9BB95C9A2BB982FF9BB92B
:101660005C9A2BB981FF9BB95C9A2BB980FF9BB91F
:101670005C9A2BB908950F931F935C985F985C9ABE
:101680005F9A5C98EBB1EF76AE2FA068FAE3F7FFB4
:10169000EBB95C9AABB9F6FFEBB95C9AABB9F5FF65
:1016A000EBB95C9AABB9F4FFEBB95C9AABB9F3FF59
:1016B000EBB95C9AABB9F2FFEBB95C9AABB9F1FF4D
:1016C000EBB95C9AABB9F0FFEBB95C9AABB95C983B
:1016D0005F9A5C9A5C98EBB1EF76AE2FA068F1E66A
:1016E000F7FFEBB95C9AABB9F6FFEBB95C9AABB913
:1016F000F5FFEBB95C9AABB9F4FFEBB95C9AABB907
:10170000F3FFEBB95C9AABB9F2FFEBB95C9AABB9FA
:10171000F1FFEBB95C9AABB9F0FFEBB95C9AABB9EE
:101720005C985F985C9A5F9A5C98EBB1EF76AE2F0D
:10173000A068FAE2F7FFEBB95C9AABB9F6FFEBB938
:101740005C9AABB9F5FFEBB95C9AABB9F4FFEBB9B6
:101750005C9AABB9F3FFEBB95C9AABB9F2FFEBB9AA
:101760005C9AABB9F1FFEBB95C9AABB9F0FFEBB99E
:101770005C9AABB95C985F9A5C9A5C98EBB1EF7637
:10178000FE2FF06897FFEBB95C9AFBB996FFEBB9B7
:101790005C9AFBB995FFEBB95C9AFBB994FFEBB986
:1017A0005C9AFBB993FFEBB95C9AFBB992FFEBB97A
:1017B0005C9AFBB991FFEBB95C9AFBB990FFEBB96E
:1017C0005C9AFBB95C985F9A5C9A5C98EBB1EF7697
:1017D000FE2FF06887FFEBB95C9AFBB986FFEBB987
:1017E0005C9AFBB985FFEBB95C9AFBB984FFEBB956
:1017F0005C9AFBB983FFEBB95C9AFBB982FFEBB94A
:101800005C9AFBB981FFEBB95C9AFBB980FFEBB93D
:101810005C9AFBB95C985F9A5C9A5C98EBB1EF7646
:10182000DA011197A80FB91F9E2F9068B7FFEBB987
:101830005C9A9BB9B6FFEBB95C9A9BB9B5FFEBB963
:101840005C9A9BB9B4FFEBB95C9A9BB9B3FFEBB957
:101850005C9A9BB9B2FFEBB95C9A9BB9B1FFEBB94B
:101860005C9A9BB9B0FFEBB95C9A9BB95C985F9AA4
:101870005C9A5C989BB19F76EFEFE40F8E0FE92F97
:10188000E06887FF9BB95C9AEBB986FF9BB95C9ACD
:10189000EBB985FF9BB95C9AEBB984FF9BB95C9A65
:1018A000EBB983FF9BB95C9AEBB982FF9BB95C9A59
:1018B000EBB981FF9BB95C9AEBB980FF9BB95C9A4D
:1018C000EBB95C985F985C9A5F9A5C988BB18F7665
:1018D000E82FE0689BE297FF8BB95C9AEBB996FF23
:1018E0008BB95C9AEBB995FF8BB95C9AEBB994FF15
:1018F0008BB95C9AEBB993FF8BB95C9AEBB992FF09
:101900008BB95C9AEBB991FF8BB95C9AEBB990FFFC
:101910008BB95C9AEBB95C985F9A5C9A5C988BB1D6
:101920008F76982F906877FF8BB95C9A9BB976FF7A
:101930008BB95C9A9BB975FF8BB95C9A9BB974FFA4
:101940008BB95C9A9BB973FF8BB95C9A9BB972FF98
:101950008BB95C9A9BB971FF8BB95C9A9BB970FF8C
:101960008BB95C9A9BB95C985F9A5C9A5C988BB1D6
:101970008F76982F906867FF8BB95C9A9BB966FF4A
:101980008BB95C9A9BB965FF8BB95C9A9BB964FF74
:101990008BB95C9A9BB963FF8BB95C9A9BB962FF68
:1019A0008BB95C9A9BB961FF8BB95C9A9BB960FF5C
:1019B0008BB95C9A9BB95C985F9A5C9A5C988BB186
:1019C0008F76F9013197E60FF71F982F9068F7FF90
:1019D0008BB95C9A9BB9F6FF8BB95C9A9BB9F5FF02
:1019E0008BB95C9A9BB9F4FF8BB95C9A9BB9F3FFF6
:1019F0008BB95C9A9BB9F2FF8BB95C9A9BB9F1FFEA
:101A00008BB95C9A9BB9F0FF8BB95C9A9BB95C98D7
:101A10005F9A5C9A5C988BB18F769FEF920F690FFB
:101A2000982F906867FF8BB95C9A9BB966FF8BB95A
:101A30005C9A9BB965FF8BB95C9A9BB964FF8BB9C3
:101A40005C9A9BB963FF8BB95C9A9BB962FF8BB9B7
:101A50005C9A9BB961FF8BB95C9A9BB960FF8BB9AB
:101A60005C9A9BB95C985F985C9A5F9A5C988BB122
:101A70008F76682F60689CE297FF8BB95C9A6BB990
:101A800096FF8BB95C9A6BB995FF8BB95C9A6BB971
:101A900094FF8BB95C9A6BB993FF8BB95C9A6BB965
:101AA00092FF8BB95C9A6BB991FF8BB95C9A6BB959
:101AB00090FF8BB95C9A6BB9DA010E94612F8B01A0
:101AC0009C01369527951795079501151105210558
:101AD000310509F436C040E050E0BA01E0E05C981E
:101AE0005F9A5C9A5C988BB18F76982F9068E7FF2D
:101AF0008BB95C9A9BB9E6FF8BB95C9A9BB9E5FF01
:101B00008BB95C9A9BB9E4FF8BB95C9A9BB9E3FFF4
:101B10008BB95C9A9BB9E2FF8BB95C9A9BB9E1FFE8
:101B20008BB95C9A9BB9E0FF8BB95C9A9BB94F5F0C
:101B30005F4F6F4F7F4F401751076207730709F0E0
:101B4000CECF5C985F985C9A5F9A5C988BB18F76E9
:101B5000282F20689AE397FF8BB95C9A2BB996FFE0
:101B60008BB95C9A2BB995FF8BB95C9A2BB994FF12
:101B70008BB95C9A2BB993FF8BB95C9A2BB992FF06
:101B80008BB95C9A2BB991FF8BB95C9A2BB990FFFA
:101B90008BB95C9A2BB95C985F9A5C9A5C988BB114
:101BA0008F76282F206896E697FF8BB95C9A2BB921
:101BB00096FF8BB95C9A2BB995FF8BB95C9A2BB9C0
:101BC00094FF8BB95C9A2BB993FF8BB95C9A2BB9B4
:101BD00092FF8BB95C9A2BB991FF8BB95C9A2BB9A8
:101BE00090FF8BB95C9A2BB91F910F91089590913A
:101BF0003803992319F14FB7F89492E09093E900D4
:101C00009091F200292F30E01216130614F421E00F
:101C100030E0232B31F0000084E68093370380917D
:101C2000F100992351F09091F200911103C09BE6CD
:101C30009093E8004FBF90E008954FBF8FEF9FEF64
:101C40000895CF92DF92EF92FF920F931F936A0154
:101C5000F9014217530714F06901FA01811109C013
:101C600090E080E01F910F91FF90EF90DF90CF9078
:101C70000895DB016C157D050CF440C0CF01AE1753
:101C8000BF07BCF12417350734F49F01281B390B1B
:101C9000C9018C0D9D1D0D2C000CEE08FF08092EAE
:101CA000000CAA0BBB0B9C01AD012C193D094E0980
:101CB0005F09AEEFBFEF0E94342F9F01FF0F440B6F
:101CC000550B2C193D094E095F090E94152FDA01A9
:101CD000C9018F5F9F47A109B109F80180839183F2
:101CE00082E090E01F910F91FF90EF90DF90CF90F6
:101CF0000895CD012417350774F6C7CFD601CF015B
:101D0000AE17BF070CF0BECFF4CF20919B013091EE
:101D10009C014091990150919A012417350744F094
:101D20002F5F3F4F30939C0120939B0181E00895EA
:101D30009091E8009570E1F39091E80092FD15C054
:101D40008093F10020919B0130919C012F5F3F4FC8
:101D5000C9018F739927892B29F78EEF8093E800AB
:101D600020919B0130919C01DBCF80E00895EF92A0
:101D7000FF920F931F93CF93DF93F82E192FE62E28
:101D8000042F81E0860F880F0E94850E83E00E9459
:101D9000850EEE20D9F0CF2DD12FEA94CE010196F9
:101DA000E80EF92EF11C0DC088810E94850E182FB7
:101DB00080E00E94850E812351F02196CE15DF052B
:101DC00029F007FFF1CFFE018491EFCF81E0DF9191
:101DD000CF911F910F91FF90EF900895CF92DF92D6
:101DE000FF920F931F93CF93DF93F82E6A01EB01BD
:101DF0008B01040F151F06C088810E94850E219655
:101E0000882361F0C017D10761F0F7FEF5CFFE011E
:101E100084910E94850E21968111F4CFCC24CA941E
:101E2000DC2CC601DF91CF911F910F91FF90DF90C5
:101E3000CF9008958091900181110DC082E0809330
:101E40008C0184E080938D0110928F0110928E019D
:101E500081E0809390018CE891E008950F931F93A7
:101E6000CF93DF931F92CDB7DEB782E0898342E440
:101E700050E06AE075E180E80E94EE0E0E941A0FC1
:101E8000DC0112960D911C910115110539F413C056
:101E9000F801008511850115110569F0D801ED9152
:101EA000FC910280F381E02DBE016F5F7F4FC8017E
:101EB000099597FFEDCF89810F90DF91CF911F9109
:101EC0000F910895CF93DF931F92CDB7DEB769834B
:101ED000DC01ED91FC910280F381E02D41E050E0C6
:101EE000BE016F5F7F4F09950F90DF91CF910895ED
:101EF000EF92FF921F93CF93DF93C9E3D3E081501A
:101F000090E09C01265C3C4F790110E0699189E4E6
:101F100093E00E94620FFE0131978081180FCE1569
:101F2000DF05A1F7612F89E493E0DF91CF911F9145
:101F3000FF90EF900C94620F83E08093E900809112
:101F4000F200882319F08AE38093E80008952FB700
:101F5000F89483E08093E9008091E80085FF07C052
:101F60009091F20080E4891B90E02FBF089590E0EB
:101F700080E02FBF0895FC012485358537FD06C01C
:101F80004FEF5FEF55874487C90108950C94F70D13
:101F9000CF93DF93EC018C859D8597FD03C0DF9186
:101FA000CF9108950E94F70D9D878C87DF91CF9187
:101FB0000895FC018485958597FD0BC09FB7F89423
:101FC00082E08093E9008091F2009FBF90E001964B
:101FD00008959FB7F89482E08093E9008091F20021
:101FE0009FBF90E0089581508F30D0F4E82FF0E04B
:101FF000E450F04F0C94842F1110151019101F107D
:1020000025101010101010102B10311037103D102B
:10201000431010100B108091C200877F8093C20084
:10202000089584B58F7784BD089584B58F7D84BD70
:102030000895809180008F7780938000089580912B
:1020400080008F7D80938000089580918000877F3D
:10205000809380000895809190008F778093900006
:102060000895809190008F7D8093900008958091D5
:102070009000877F8093900008958091C0008F77B3
:102080008093C00008958091C0008F7D8093C00030
:102090000895CF93DF93282F30E0F901E451FB4EF0
:1020A0008491F901E353FB4ED491F901E255FB4EC3
:1020B000C491CC23B1F0811119C0EC2FF0E0EE0FE8
:1020C000FF1FE056FB4EA591B491EC91ED2381E00A
:1020D00090E019F0DF91CF91089580E0DF91CF91EA
:1020E000089580E090E0DF91CF9108950E94F30F72
:1020F000E4CF1F93CF93DF93282F30E0F901E45111
:10210000FB4E8491F901E353FB4E1491F901E25522
:10211000FB4EC491CC23A9F0D62F81111BC0EC2F0C
:10212000F0E0EE0FFF1FEE56FB4EA591B4918FB776
:10213000F894D1110AC09C91E12FE095E923EC932A
:102140008FBFDF91CF911F910895EC91E12BEC931C
:102150008FBFF7CF0E94F30FE2CFCF93DF9390E0D2
:10216000FC01E353FB4E249182559B4EFC0184916C
:102170008823B9F090E0880F991FFC01EC57FB4EC3
:10218000A591B491FC01EE56FB4EC591D491662306
:1021900059F06230B9F08FB7F894EC91E22BEC93E0
:1021A0008FBFDF91CF9108959FB7F8948C91E22F64
:1021B000E0958E238C938881E823E8839FBFDF918D
:1021C000CF9108959FB7F8943C91822F80958323F7
:1021D0008C93E881E22BE8839FBFE3CF1F93CF93DB
:1021E000DF93182FEB0161E00E94AD10209749F1B9
:1021F000CF3FD10559F0E12FF0E0E451FB4EE491DF
:10220000E150EF3050F0C038D105DCF061E0812FB3
:10221000DF91CF911F910C947910F0E0EE5EFE4EAD
:102220000C94842F2811301135113F1149110311DD
:102230000311031153115D11671171117E11031107
:10224000861160E0812FDF91CF911F910C9479105E
:1022500084B5806884BDC7BDDF91CF911F9108957B
:1022600084B5806284BDC8BDF7CF8091800080684E
:1022700080938000D0938900C0938800EDCF809137
:102280008000806280938000D0938B00C0938A008E
:10229000E3CF80918000886080938000D0938D0090
:1022A000C0938C00D9CF809190008068809390007B
:1022B000D0939900C0939800CFCF80919000806216
:1022C00080939000D0939B00C0939A00C5CF8091DB
:1022D0009000886080939000D0939D00C0939C00F4
:1022E000BBCF8091C00080688093C0008091C00007
:1022F0008F7B8093C000C093CF00AECF8091C00091
:1023000080628093C000C093D000A6CF8091C200AD
:1023100088608093C2008091C2008B7F8093C2004E
:10232000C093D20099CF8251E82FF0E0E858FB4EDD
:10233000E49190917B008E2F880F880F80729F7D93
:10234000892B80937B00E770E064E0937C008091B0
:102350007A00806480937A0080917A0086FDFCCFB9
:10236000809178009091790008950F931F938B01CD
:102370009C019FB7F8944091880150918901609128
:102380008A0170918B0186B5A89B06C08F3F21F012
:102390004F5F5F4F6F4F7F4F9FBF762F652F542F3B
:1023A0004427480F511D611D711D440F551F661FA5
:1023B000771F440F551F661F771F440F551F661F59
:1023C000771F0115110521053105E9F1FFB7F894D3
:1023D0008091880190918901A0918A01B0918B012F
:1023E000E6B5A89B05C0EF3F19F00196A11DB11DF0
:1023F000FFBFBA2FA92F982F88278E0F911DA11DDF
:10240000B11D880F991FAA1FBB1F880F991FAA1FF4
:10241000BB1F880F991FAA1FBB1F841B950BA60B00
:10242000B70B883E9340A105B10580F20150110918
:102430002109310948515C4F6F4F7F4F011511053C
:102440002105310519F61F910F9108957F928F9202
:102450009F92AF92BF92CF92DF92EF92FF920F9333
:102460001F93CF93DF93982E7B015A0180913803FD
:10247000882309F478C080919E0180FD8FC085017A
:10248000D12CCAEFD92DD77080E4C82E892D807247
:10249000882E9AE3792E0115110519F4DD2009F42F
:1024A0004DC02FB7F894D093E9003091E80035FD86
:1024B0000EC02FBFC15009F456C061E070E080E04B
:1024C00090E00E94B5110115110559F7E7CF8091F1
:1024D000F2003C2D381B2FBF332361F33017110658
:1024E00011F00CF0302F9FB7F894D093E900809151
:1024F000E80085FF36C0031B11092FEF230F811061
:1025000042C097FC64C0332389F0F70130E0A70193
:102510004F5F5F4F420F531F81918093F1004E1721
:102520005F07D1F72F5F3F4FE20EF31EDD2061F012
:102530007092E8009FBF01151105B1F5000084E617
:1025400080939D01C50111C08091E80085FD2EC0DA
:102550007092E80001151105C1F59FBFDD24D394E9
:10256000A0CF9FBF98CF8FEF9FEFDF91CF911F91AB
:102570000F91FF90EF90DF90CF90BF90AF909F9022
:102580008F907F900895332389F21092F1002150AB
:1025900068F21092F1002150C0F7C8CF8091E0009E
:1025A00082608093E0006BCFD12C7BCF01151105A9
:1025B00061F496FE1EC08AE38093E8009FBF00008E
:1025C00084E680939D01C501D0CF9FBF6ACF33239E
:1025D00009F4ACCFF70130E0A7014F5F5F4F420F26
:1025E000531F84918093F1003196E417F507C9F7E2
:1025F00099CF9FBF000084E680939D01C501B5CFB0
:10260000CF93DF93EC0180910B01811109C081E030
:1026100090E09B838A8380E090E0DF91CF910895E2
:1026200083E00E942612181619068CF7DF91CF91CD
:1026300008952FB7F894609184017091850180917D
:102640008601909187012FBF0895FC014281FB0113
:10265000248135814217130611F080E008953181FD
:102660002081213A59F02132C1F73B3069F03A30EC
:10267000A1F72281FC01208B81E008953D7F81E05C
:10268000313061F380E0EACF2281FC01278781E0CD
:102690000895DC01FB0188E4808389E4818384E47C
:1026A00082831D969C911D979F709F5B93831D96BF
:1026B0008D919C91929582958F7089279F70892723
:1026C0008F708F5B848385E00895EF92FF920F9364
:1026D0001F93CF93DF93FC01DB019C91913849F06C
:1026E00090E080E0DF91CF911F910F91FF90EF90EC
:1026F000089513968C911397823291F72281149644
:102700008D919C912817190659F78F01C385D4859F
:10271000F12CE12C209799F04C815D816A817B81BD
:102720008E81811180E80E94EE0E8F3F9807D1F2D2
:10273000E80EF91E0990D881C02D209769F781E035
:10274000F8018787C701CECFCF93DF93CDB7DEB730
:1027500069970FB6F894DEBF0FBECDBFFC01DB0159
:102760008C918F5F8C939E012D5F3F4F8DE0D9013F
:102770001D928A95E9F729E0298384E08A8391E014
:102780009D8383E08E832A8721E22B879C879D8708
:102790009F8722E2288B27E02B8B25E02C8B8E8BCA
:1027A00020E430E0388F2F8B998F82818B83958541
:1027B0008685998B8A8B838180688D8B49E150E077
:1027C000BE016F5F7F4F80E00E94EE0E69960FB6EC
:1027D000F894DEBF0FBECDBFDF91CF910895CF93A8
:1027E000DF9380917B01882329F08AE691E0DF91D5
:1027F000CF910895CAE6D1E081E080936E01809385
:102800006F0124E731E03093710120937001109241
:102810007301109272012BE331E030936B0120932E
:102820006A0110927601109275011092780110924F
:1028300077018093790180937A0181EC8093740110
:102840000E941A0FDC0111969C91119760916E0104
:10285000292F30E0A901460F511D4830510574F56C
:102860001296ED91FC911397309711F42FC0FA0155
:102870004085518541155105D1F7D187C0874C91CD
:1028800040936C0190936D0180916F01840F8C9344
:102890006623A1F0E0917001F0917101492F460F7C
:1028A00002C0292F30E08191245F3E4FE9018883E7
:1028B0009F5F11969C9311974913F3CF81E080930A
:1028C0007B018AE691E0DF91CF9108951396DC9326
:1028D000CE931297D4CF60E082E00E9479105C988A
:1028E0005F985C9A5F9A5C988BB18F76282F2068EE
:1028F00090EE97FF8BB95C9A2BB996FF8BB95C9AD7
:102900002BB995FF8BB95C9A2BB994FF8BB95C9A64
:102910002BB993FF8BB95C9A2BB992FF8BB95C9A58
:102920002BB991FF8BB95C9A2BB990FF8BB95C9A4C
:102930002BB9E6EEF2E0A9E2B1E020E001C02D9172
:1029400091915C985F9A5C9A5C988BB18F76920FAC
:10295000282F206897FF8BB95C9A2BB996FF8BB90B
:102960005C9A2BB995FF8BB95C9A2BB994FF8BB904
:102970005C9A2BB993FF8BB95C9A2BB992FF8BB9F8
:102980005C9A2BB991FF8BB95C9A2BB990FF8BB9EC
:102990005C9A2BB982E0E53FF80709F0D0CF5C984C
:1029A0005F985C9A5F9A5C988BB18F76282F20682D
:1029B00091EE97FF8BB95C9A2BB996FF8BB95C9A15
:1029C0002BB995FF8BB95C9A2BB994FF8BB95C9AA4
:1029D0002BB993FF8BB95C9A2BB992FF8BB95C9A98
:1029E0002BB991FF8BB95C9A2BB990FF8BB95C9A8C
:1029F0002BB9E7EDF2E0AAE1B1E020E001C02D91B2
:102A000091915C985F9A5C9A5C988BB18F76920FEB
:102A1000282F206897FF8BB95C9A2BB996FF8BB94A
:102A20005C9A2BB995FF8BB95C9A2BB994FF8BB943
:102A30005C9A2BB993FF8BB95C9A2BB992FF8BB937
:102A40005C9A2BB991FF8BB95C9A2BB990FF8BB92B
:102A50005C9A2BB982E0E63EF80709F0D0CF61E03E
:102A600082E00C9479108F929F92AF92BF92CF9296
:102A7000DF92EF92FF920F931F93CF93DF9360E06B
:102A800085E00E9479106AE070E080E090E00E94AA
:102A9000B51161E085E00E94791064E670E080E0A5
:102AA00090E00E94B51160E082E00E94791080EE13
:102AB0000E94E80A5C985F9A5C9A5C988BB18F766A
:102AC00010E0982F906817FF8BB95C9A9BB916FF9E
:102AD0008BB95C9A9BB915FF8BB95C9A9BB914FFB3
:102AE0008BB95C9A9BB913FF8BB95C9A9BB912FFA7
:102AF0008BB95C9A9BB911FF8BB95C9A9BB910FF9B
:102B00008BB95C9A9BB95C985F9A5C9A5C988BB124
:102B10008F76282F20689EE097FF8BB95C9A2BB99F
:102B200096FF8BB95C9A2BB995FF8BB95C9A2BB940
:102B300094FF8BB95C9A2BB993FF8BB95C9A2BB934
:102B400092FF8BB95C9A2BB991FF8BB95C9A2BB928
:102B500090FF8BB95C9A2BB95C985F9A5C9A5C98F1
:102B60008BB18F76282F206895E197FF8BB95C9AFF
:102B70002BB996FF8BB95C9A2BB995FF8BB95C9AF0
:102B80002BB994FF8BB95C9A2BB993FF8BB95C9AE4
:102B90002BB992FF8BB95C9A2BB991FF8BB95C9AD8
:102BA0002BB990FF8BB95C9A2BB95C985F9A5C9AB1
:102BB0005C988BB18F76282F206896E097FF8BB9B1
:102BC0005C9A2BB996FF8BB95C9A2BB995FF8BB9A0
:102BD0005C9A2BB994FF8BB95C9A2BB993FF8BB994
:102BE0005C9A2BB992FF8BB95C9A2BB991FF8BB988
:102BF0005C9A2BB990FF8BB95C9A2BB95C985F9A61
:102C00005C9A5C988BB18F7693E1F92E982F90683F
:102C1000F7FE8BB95C9A9BB9F6FE8BB95C9A9BB9AF
:102C2000F5FE8BB95C9A9BB9F4FE8BB95C9A9BB9A3
:102C3000F3FE8BB95C9A9BB9F2FE8BB95C9A9BB997
:102C4000F1FE8BB95C9A9BB9F0FE8BB95C9A9BB98B
:102C50005C985F9A5C9A5C988BB18F76282F20687D
:102C600099E097FF8BB95C9A2BB996FF8BB95C9A68
:102C70002BB995FF8BB95C9A2BB994FF8BB95C9AF1
:102C80002BB993FF8BB95C9A2BB992FF8BB95C9AE5
:102C90002BB991FF8BB95C9A2BB990FF8BB95C9AD9
:102CA0002BB95C985F9A5C9A5C988BB18F76282FD1
:102CB00020689AE397FF8BB95C9A2BB996FF8BB982
:102CC0005C9A2BB995FF8BB95C9A2BB994FF8BB9A1
:102CD0005C9A2BB993FF8BB95C9A2BB992FF8BB995
:102CE0005C9A2BB991FF8BB95C9A2BB990FF8BB989
:102CF0005C9A2BB95C985F9A5C9A5C988BB18F76E2
:102D0000282F20689CEA97FF8BB95C9A2BB996FF15
:102D10008BB95C9A2BB995FF8BB95C9A2BB994FF50
:102D20008BB95C9A2BB993FF8BB95C9A2BB992FF44
:102D30008BB95C9A2BB991FF8BB95C9A2BB990FF38
:102D40008BB95C9A2BB95C985F9A5C9A5C988BB152
:102D50008F76282F20689FE497FF8BB95C9A2BB958
:102D600096FF8BB95C9A2BB995FF8BB95C9A2BB9FE
:102D700094FF8BB95C9A2BB993FF8BB95C9A2BB9F2
:102D800092FF8BB95C9A2BB991FF8BB95C9A2BB9E6
:102D900090FF8BB95C9A2BB95C985F9A5C9A5C98AF
:102DA0008BB18F76D5E0982F9068D7FF8BB95C9A5E
:102DB0009BB9D6FF8BB95C9A9BB9D5FF8BB95C9A4E
:102DC0009BB9D4FF8BB95C9A9BB9D3FF8BB95C9A42
:102DD0009BB9D2FF8BB95C9A9BB9D1FF8BB95C9A36
:102DE0009BB9D0FF8BB95C9A9BB95C985F9A5C9A4F
:102DF0005C988BB18F76282F20689DE097FF8BB968
:102E00005C9A2BB996FF8BB95C9A2BB995FF8BB95D
:102E10005C9A2BB994FF8BB95C9A2BB993FF8BB951
:102E20005C9A2BB992FF8BB95C9A2BB991FF8BB945
:102E30005C9A2BB990FF8BB95C9A2BB95C985F9A1E
:102E40005C9A5C988BB18F76282F20689BE097FF67
:102E50008BB95C9A2BB996FF8BB95C9A2BB995FF0D
:102E60008BB95C9A2BB994FF8BB95C9A2BB993FF01
:102E70008BB95C9A2BB992FF8BB95C9A2BB991FFF5
:102E80008BB95C9A2BB990FF8BB95C9A2BB983E311
:102E90000E94120B5C985F9A5C9A5C988BB18F765B
:102EA000282F20689BE397FF8BB95C9A2BB996FF7C
:102EB0008BB95C9A2BB995FF8BB95C9A2BB994FFAF
:102EC0008BB95C9A2BB993FF8BB95C9A2BB992FFA3
:102ED0008BB95C9A2BB991FF8BB95C9A2BB990FF97
:102EE0008BB95C9A2BB95C985F9A5C9A5C988BB1B1
:102EF0008F76CFE0982F9068C7FF8BB95C9A9BB90B
:102F0000C6FF8BB95C9A9BB9C5FF8BB95C9A9BB91C
:102F1000C4FF8BB95C9A9BB9C3FF8BB95C9A9BB910
:102F2000C2FF8BB95C9A9BB9C1FF8BB95C9A9BB904
:102F3000C0FF8BB95C9A9BB981EE0E94E80A80E0E1
:102F40000E94120B8EE00E94120B86E10E94120B6F
:102F50005C985F9A5C9A5C988BB18F76982F90689A
:102F6000D7FF8BB95C9A9BB9D6FF8BB95C9A9BB99A
:102F7000D5FF8BB95C9A9BB9D4FF8BB95C9A9BB98E
:102F8000D3FF8BB95C9A9BB9D2FF8BB95C9A9BB982
:102F9000D1FF8BB95C9A9BB9D0FF8BB95C9A9BB976
:102FA00083E10E94120B5C985F9A5C9A5C988BB1EB
:102FB0008F7608E0982F906807FF8BB95C9A9BB9D1
:102FC00006FF8BB95C9A9BB905FF8BB95C9A9BB9DC
:102FD00004FF8BB95C9A9BB903FF8BB95C9A9BB9D0
:102FE00002FF8BB95C9A9BB901FF8BB95C9A9BB9C4
:102FF00000FF8BB95C9A9BB98BE30E94120B5C9823
:103000005F9A5C9A5C988BB18F76282F20689AE93A
:1030100097FF8BB95C9A2BB996FF8BB95C9A2BB949
:1030200095FF8BB95C9A2BB994FF8BB95C9A2BB93D
:1030300093FF8BB95C9A2BB992FF8BB95C9A2BB931
:1030400091FF8BB95C9A2BB990FF8BB95C9A2BB925
:103050005C985F9A5C9A5C988BB18F76282F206879
:1030600090E597FF8BB95C9A2BB996FF8BB95C9A68
:103070002BB995FF8BB95C9A2BB994FF8BB95C9AED
:103080002BB993FF8BB95C9A2BB992FF8BB95C9AE1
:103090002BB991FF8BB95C9A2BB990FF8BB95C9AD5
:1030A0002BB95C985F9A5C9A5C988BB18F76282FCD
:1030B00020689AE097FF8BB95C9A2BB996FF8BB981
:1030C0005C9A2BB995FF8BB95C9A2BB994FF8BB99D
:1030D0005C9A2BB993FF8BB95C9A2BB992FF8BB991
:1030E0005C9A2BB991FF8BB95C9A2BB990FF8BB985
:1030F0005C9A2BB95C985F9A5C9A5C988BB18F76DE
:10310000982F9068F7FE8BB95C9A9BB9F6FE8BB945
:103110005C9A9BB9F5FE8BB95C9A9BB9F4FE8BB9AE
:103120005C9A9BB9F3FE8BB95C9A9BB9F2FE8BB9A2
:103130005C9A9BB9F1FE8BB95C9A9BB9F0FE8BB996
:103140005C9A9BB95C985F9A5C9A5C988BB18F761D
:10315000982F9068C7FF8BB95C9A9BB9C6FF8BB953
:103160005C9A9BB9C5FF8BB95C9A9BB9C4FF8BB9BC
:103170005C9A9BB9C3FF8BB95C9A9BB9C2FF8BB9B0
:103180005C9A9BB9C1FF8BB95C9A9BB9C0FF8BB9A4
:103190005C9A9BB95C985F9A5C9A5C988BB18F76CD
:1031A000282F206891E397FF8BB95C9A2BB996FF83
:1031B0008BB95C9A2BB995FF8BB95C9A2BB994FFAC
:1031C0008BB95C9A2BB993FF8BB95C9A2BB992FFA0
:1031D0008BB95C9A2BB991FF8BB95C9A2BB990FF94
:1031E0008BB95C9A2BB95C985F9A5C9A5C988BB1AE
:1031F0008F76282F206896E397FF8BB95C9A2BB9BE
:1032000096FF8BB95C9A2BB995FF8BB95C9A2BB959
:1032100094FF8BB95C9A2BB993FF8BB95C9A2BB94D
:1032200092FF8BB95C9A2BB991FF8BB95C9A2BB941
:1032300090FF8BB95C9A2BB98FE00E94120B80EC47
:103240000E94E80A5C985F9A5C9A5C988BB18F76D2
:1032500020E1F22E982F9068F7FE8BB95C9A9BB90B
:10326000F6FE8BB95C9A9BB9F5FE8BB95C9A9BB95B
:10327000F4FE8BB95C9A9BB9F3FE8BB95C9A9BB94F
:10328000F2FE8BB95C9A9BB9F1FE8BB95C9A9BB943
:10329000F0FE8BB95C9A9BB95C985F9A5C9A5C98DB
:1032A0008BB18F76982F9068F7FE8BB95C9A9BB99B
:1032B000F6FE8BB95C9A9BB9F5FE8BB95C9A9BB90B
:1032C000F4FE8BB95C9A9BB9F3FE8BB95C9A9BB9FF
:1032D000F2FE8BB95C9A9BB9F1FE8BB95C9A9BB9F3
:1032E000F0FE8BB95C9A9BB981EC0E94E80A5C986D
:1032F0005F9A5C9A5C988BB18F76282F206897E450
:1033000097FF8BB95C9A2BB996FF8BB95C9A2BB956
:1033100095FF8BB95C9A2BB994FF8BB95C9A2BB94A
:1033200093FF8BB95C9A2BB992FF8BB95C9A2BB93E
:1033300091FF8BB95C9A2BB990FF8BB95C9A2BB932
:1033400085EC0E94E80A5C985F9A5C9A5C988BB165
:103350008F76982F906817FF8BB95C9A9BB916FFF0
:103360008BB95C9A9BB915FF8BB95C9A9BB914FF1A
:103370008BB95C9A9BB913FF8BB95C9A9BB912FF0E
:103380008BB95C9A9BB911FF8BB95C9A9BB910FF02
:103390008BB95C9A9BB95C985F9A5C9A5C988BB18C
:1033A0008F76982F9068F7FE8BB95C9A9BB9F6FEE2
:1033B0008BB95C9A9BB9F5FE8BB95C9A9BB9F4FE0C
:1033C0008BB95C9A9BB9F3FE8BB95C9A9BB9F2FE00
:1033D0008BB95C9A9BB9F1FE8BB95C9A9BB9F0FEF4
:1033E0008BB95C9A9BB95C985F9A5C9A5C988BB13C
:1033F0008F76282F206890E897FF8BB95C9A2BB9BD
:1034000096FF8BB95C9A2BB995FF8BB95C9A2BB957
:1034100094FF8BB95C9A2BB993FF8BB95C9A2BB94B
:1034200092FF8BB95C9A2BB991FF8BB95C9A2BB93F
:1034300090FF8BB95C9A2BB986E30E94E80A5C98EE
:103440005F9A5C9A5C988BB18F76982F906807FF93
:103450008BB95C9A9BB906FF8BB95C9A9BB905FF47
:103460008BB95C9A9BB904FF8BB95C9A9BB903FF3B
:103470008BB95C9A9BB902FF8BB95C9A9BB901FF2F
:103480008BB95C9A9BB900FF8BB95C9A9BB98AE3B4
:103490000E94E80A5C985F9A5C9A5C988BB18F7680
:1034A000282F206896E697FF8BB95C9A2BB996FF78
:1034B0008BB95C9A2BB995FF8BB95C9A2BB994FFA9
:1034C0008BB95C9A2BB993FF8BB95C9A2BB992FF9D
:1034D0008BB95C9A2BB991FF8BB95C9A2BB990FF91
:1034E0008BB95C9A2BB981E20E94E80A80EB0E94BA
:1034F000E80A5C985F9A5C9A5C988BB18F76982FFB
:10350000906817FF8BB95C9A9BB916FF8BB95C9AD0
:103510009BB915FF8BB95C9A9BB914FF8BB95C9A68
:103520009BB913FF8BB95C9A9BB912FF8BB95C9A5C
:103530009BB911FF8BB95C9A9BB910FF8BB95C9A50
:103540009BB981EB0E94E80A5C985F9A5C9A5C9850
:103550008BB18F76282F206890EB97FF8BB95C9A00
:103560002BB996FF8BB95C9A2BB995FF8BB95C9AF6
:103570002BB994FF8BB95C9A2BB993FF8BB95C9AEA
:103580002BB992FF8BB95C9A2BB991FF8BB95C9ADE
:103590002BB990FF8BB95C9A2BB984EB0E94E80A97
:1035A0005C985F9A5C9A5C988BB18F76982F906844
:1035B00017FF8BB95C9A9BB916FF8BB95C9A9BB9C4
:1035C00015FF8BB95C9A9BB914FF8BB95C9A9BB9B8
:1035D00013FF8BB95C9A9BB912FF8BB95C9A9BB9AC
:1035E00011FF8BB95C9A9BB910FF8BB95C9A9BB9A0
:1035F00085EB0E94E80A5C985F9A5C9A5C988BB1B4
:103600008F76982F9068D7FF8BB95C9A9BB9D6FFBD
:103610008BB95C9A9BB9D5FF8BB95C9A9BB9D4FFE7
:103620008BB95C9A9BB9D3FF8BB95C9A9BB9D2FFDB
:103630008BB95C9A9BB9D1FF8BB95C9A9BB9D0FFCF
:103640008BB95C9A9BB95C985F9A5C9A5C988BB1D9
:103650008F76982F9068D7FF8BB95C9A9BB9D6FF6D
:103660008BB95C9A9BB9D5FF8BB95C9A9BB9D4FF97
:103670008BB95C9A9BB9D3FF8BB95C9A9BB9D2FF8B
:103680008BB95C9A9BB9D1FF8BB95C9A9BB9D0FF7F
:103690008BB95C9A9BB95C985F9A5C9A5C988BB189
:1036A0008F76982F9068C7FF8BB95C9A9BB9C6FF3D
:1036B0008BB95C9A9BB9C5FF8BB95C9A9BB9C4FF67
:1036C0008BB95C9A9BB9C3FF8BB95C9A9BB9C2FF5B
:1036D0008BB95C9A9BB9C1FF8BB95C9A9BB9C0FF4F
:1036E0008BB95C9A9BB95C985F9A5C9A5C988BB139
:1036F0008F76982F9068C7FF8BB95C9A9BB9C6FFED
:103700008BB95C9A9BB9C5FF8BB95C9A9BB9C4FF16
:103710008BB95C9A9BB9C3FF8BB95C9A9BB9C2FF0A
:103720008BB95C9A9BB9C1FF8BB95C9A9BB9C0FFFE
:103730008BB95C9A9BB986EB0E94E80A80910503DD
:1037400090910603892B09F4CAC182E00E94120BF2
:103750005C985F9A5C9A5C988BB18F76282F206872
:1037600092E297FF8BB95C9A2BB996FF8BB95C9A62
:103770002BB995FF8BB95C9A2BB994FF8BB95C9AE6
:103780002BB993FF8BB95C9A2BB992FF8BB95C9ADA
:103790002BB991FF8BB95C9A2BB990FF8BB95C9ACE
:1037A0002BB95C985F9A5C9A5C988BB18F76282FC6
:1037B00020689BE397FF8BB95C9A2BB996FF8BB976
:1037C0005C9A2BB995FF8BB95C9A2BB994FF8BB996
:1037D0005C9A2BB993FF8BB95C9A2BB992FF8BB98A
:1037E0005C9A2BB991FF8BB95C9A2BB990FF8BB97E
:1037F0005C9A2BB987EB0E94E80A5C985F9A5C9A06
:103800005C988BB18F76282F206896EC97FF8BB948
:103810005C9A2BB996FF8BB95C9A2BB995FF8BB943
:103820005C9A2BB994FF8BB95C9A2BB993FF8BB937
:103830005C9A2BB992FF8BB95C9A2BB991FF8BB92B
:103840005C9A2BB990FF8BB95C9A2BB98EEB0E94D6
:10385000E80A5C985F9A5C9A5C988BB18F76C0E0BE
:10386000982F9068C7FF8BB95C9A9BB9C6FF8BB93C
:103870005C9A9BB9C5FF8BB95C9A9BB9C4FF8BB9A5
:103880005C9A9BB9C3FF8BB95C9A9BB9C2FF8BB999
:103890005C9A9BB9C1FF8BB95C9A9BB9C0FF8BB98D
:1038A0005C9A9BB95C985F9A5C9A5C988BB18F76B6
:1038B000282F206894E097FF8BB95C9A2BB996FF6C
:1038C0008BB95C9A2BB995FF8BB95C9A2BB994FF95
:1038D0008BB95C9A2BB993FF8BB95C9A2BB992FF89
:1038E0008BB95C9A2BB991FF8BB95C9A2BB990FF7D
:1038F0008BB95C9A2BB989EE0E94E80A5C985F9AB2
:103900005C9A5C988BB18F76982F9068C7FF8BB9C3
:103910005C9A9BB9C6FF8BB95C9A9BB9C5FF8BB902
:103920005C9A9BB9C4FF8BB95C9A9BB9C3FF8BB9F6
:103930005C9A9BB9C2FF8BB95C9A9BB9C1FF8BB9EA
:103940005C9A9BB9C0FF8BB95C9A9BB987EF0E94C8
:10395000E80A5C985F9A5C9A5C988BB18F76282F06
:10396000206899EA97FF8BB95C9A2BB996FF8BB9BF
:103970005C9A2BB995FF8BB95C9A2BB994FF8BB9E4
:103980005C9A2BB993FF8BB95C9A2BB992FF8BB9D8
:103990005C9A2BB991FF8BB95C9A2BB990FF8BB9CC
:1039A0005C9A2BB95C985F9A5C9A5C988BB18F7625
:1039B000282F206891E597FF8BB95C9A2BB996FF69
:1039C0008BB95C9A2BB995FF8BB95C9A2BB994FF94
:1039D0008BB95C9A2BB993FF8BB95C9A2BB992FF88
:1039E0008BB95C9A2BB991FF8BB95C9A2BB990FF7C
:1039F0008BB95C9A2BB95C985F9A5C9A5C988BB196
:103A00008F76282F20689CE297FF8BB95C9A2BB9A0
:103A100096FF8BB95C9A2BB995FF8BB95C9A2BB941
:103A200094FF8BB95C9A2BB993FF8BB95C9A2BB935
:103A300092FF8BB95C9A2BB991FF8BB95C9A2BB929
:103A400090FF8BB95C9A2BB95C985F9A5C9A5C98F2
:103A50008BB18F76282F206892E897FF8BB95C9AFC
:103A60002BB996FF8BB95C9A2BB995FF8BB95C9AF1
:103A70002BB994FF8BB95C9A2BB993FF8BB95C9AE5
:103A80002BB992FF8BB95C9A2BB991FF8BB95C9AD9
:103A90002BB990FF8BB95C9A2BB981E10E94E80A9F
:103AA00068E770E080E090E00E94B5118091050326
:103AB00090910603892BB9F489E20E94E80A61E03B
:103AC00082E0DF91CF911F910F91FF90EF90DF90F7
:103AD000CF90BF90AF909F908F900C94791082E31D
:103AE0000E94120B35CEECEAF0E005911491EEEA5B
:103AF000F0E0C591D491E0EBF0E085909490E2EB9A
:103B0000F0E0E590F4909E0140E451E070E060E068
:103B100090E080E00E943B0BCE018E0D9F1D5C016A
:103B200021E0A21AB10821EE31E0281B390B40E454
:103B300051E0B50190E080E00E943B0B9701A801A5
:103B4000BE0190E080E00E943B0B6801C80CD91CCC
:103B50009701A801BE01C6010E943B0B8AE20E94A8
:103B6000E80A812F0E94120B802F0E94120B81E025
:103B7000C81AD1088D2D0E94120B802F880D8150FC
:103B80000E94120B8BE20E94E80A8D2F0E94120BFA
:103B90008C2F0E94120B8B2D0E94120B8C2F8E0DDE
:103BA00081500E94120B8CE20E94E80A27EB30E061
:103BB000CBE7D4E1F9011491112309F48AC0D901AA
:103BC0001397B90162507109A9014150510990E060
:103BD000FD0104915C985F9A5C9A5C988BB18F763A
:103BE000F82FF06807FF8BB95C9AFBB906FF8BB919
:103BF0005C9AFBB905FF8BB95C9AFBB904FF8BB9E2
:103C00005C9AFBB903FF8BB95C9AFBB902FF8BB9D5
:103C10005C9AFBB901FF8BB95C9AFBB900FF8BB9C9
:103C20005C9AFBB9FB0104915C985F9A5C9A5C9882
:103C30008BB18F76F82FF06807FF8BB95C9AFBB9D0
:103C400006FF8BB95C9AFBB905FF8BB95C9AFBB98F
:103C500004FF8BB95C9AFBB903FF8BB95C9AFBB983
:103C600002FF8BB95C9AFBB901FF8BB95C9AFBB977
:103C700000FF8BB95C9AFBB9FA0104915C985F9ADA
:103C80005C9A5C988BB18F76F82FF06807FF8BB940
:103C90005C9AFBB906FF8BB95C9AFBB905FF8BB93F
:103CA0005C9AFBB904FF8BB95C9AFBB903FF8BB933
:103CB0005C9AFBB902FF8BB95C9AFBB901FF8BB927
:103CC0005C9AFBB900FF8BB95C9AFBB99F5F191333
:103CD0007FCF2C5F3F4FC217D30709F06BCF89E22C
:103CE0000E94E80A609105037091060390E080E06D
:103CF0000E94B5118AE20E94E80A80E00E94120B3D
:103D000080E00E94120B81E00E94120B8FE30E9460
:103D1000120B8BE20E94E80A80E00E94120B80E006
:103D20000E94120B81E00E94120B8FED0E94120B79
:103D300086EB0E94E80A82E30E94120B82E20E9454
:103D4000120B8BE30E94120BBACE1F93CF93DF931B
:103D500061E086E00E94AD1061E084E00E94AD1059
:103D600061E082E00E94AD1061E085E00E94AD104C
:103D700061E083E30E94AD1061E084E00E9479106D
:103D800061E082E00E94791060E086E00E94791094
:103D900061E085E00E9479101092F502C6EFD2E052
:103DA0001DA9612F70E083E00E94EE101DAB81E041
:103DB0008093D602DF91CF911F910C943315CF924F
:103DC000DF92EF92FF920F931F93CF93DF93EC015B
:103DD00061E089E00E94791060E088E00E9479103B
:103DE00061E088E00E94791010E1D12CC12C60E0E4
:103DF00089E00E947910CC0CDD1C8AE00E944910F9
:103E0000892B11F06894C0F861E089E00E94791074
:103E1000115069F7C094D094F12CE12C85E10E94F7
:103E20004910892B11F06894E0F88091F802811113
:103E300015C090E080E010E000E0C882D982EA82FC
:103E4000FB821D830C839F838E83DF91CF911F9113
:103E50000F91FF90EF90DF90CF90089584E10E9442
:103E600093112091F9023091FA0228173907F0F1E5
:103E70000091FB021091FC0220173107A8F18091FC
:103E8000FD029091FE02081B190B83E10E94931121
:103E90002091FF023091000328173907E0F080914C
:103EA0000103909102032817390798F0209103032A
:103EB00030910403821B930B08332FEF1207FCF49D
:103EC0006894E2F888332FEF920714F56894E4F8C9
:103ED000B4CFC901EBCF9C01809101039091020303
:103EE0002817390718F7F5CF8901C9CF9C01009130
:103EF000FB021091FC022017310708F6F5CF093CB0
:103F0000110504F36894E1F888332FEF9207F4F277
:103F1000893C91050CF491CF6894E3F88ECF8F9291
:103F20009F92AF92BF92CF92DF92EF92FF920F9348
:103F30001F93CF93DF93CDB7DEB7ADB6BEB68091FA
:103F4000E8032DB73EB7281B31090FB6F8943EBFE2
:103F50000FBE2DBF8DB79EB701966C01E090B703E1
:103F6000F12CE114F10469F0E091B303F091B40392
:103F7000DC0197012E0F3F1F81918D93E217F3070C
:103F8000D9F78091B803882349F18091AF039091CC
:103F9000B00328E097FD09C068E671E00E94702F29
:103FA0006DE270E00E94702F262F8091B1039091F6
:103FB000B20360E897FD0AC068E671E00E94702FC6
:103FC0006DE270E00E94702F6295607FF601EE0D49
:103FD000FF1D622B6083F70131967F0186010E0D74
:103FE0001F1D2091BD033091BE034091BB03509132
:103FF000BC036091990370919A038091B903817019
:104000000E94210EE80EF91E86010E0D1F1D209143
:10401000C1033091C2034091BF035091C00360912E
:104020009B0370919C038091B903869581700E94D7
:10403000210EE80EF91E86010E0D1F1D2091C503ED
:104040003091C6034091C3035091C40360919D0316
:1040500070919E038091B90382FB882780F90E94AA
:10406000210EE80EF91E86010E0D1F1D2091C903B9
:104070003091CA034091C7035091C80360919F03D8
:104080007091A0038091B90383FB882780F90E9477
:10409000210EE80EF91E86010E0D1F1D2091CD0385
:1040A0003091CE034091CB035091CC036091A1039A
:1040B0007091A2038091B903829581700E94210EB4
:1040C000E80EF91E86010E0D1F1D2091D1033091BF
:1040D000D2034091CF035091D0036091A30370911C
:1040E000A4038091B90385FB882780F90E94210EE3
:1040F000E80EF91E86010E0D1F1D2091D50330918B
:10410000D6034091D3035091D4036091A7037091DB
:10411000A8038091BA0381700E94210EE80EF91E57
:1041200086010E0D1F1D2091D9033091DA034091B5
:10413000D7035091D8036091A5037091A603809195
:10414000BA03869581700E94210EE80EF91E860141
:104150000E0D1F1D2091DD033091DE034091DB0326
:104160005091DC036091A9037091AA038091BA0376
:1041700082FB882780F90E94210EE80EF91E860135
:104180000E0D1F1D2091E1033091E2034091DF03EA
:104190005091E0036091AB037091AC038091BA033E
:1041A00083FB882780F90E94210E8E0D9F1D8601BA
:1041B000080F191F2091E5033091E6034091E303B6
:1041C0005091E4036091AD037091AE038091BA0306
:1041D000829581700E94210E0E94EF134C01409144
:1041E000E8038091E70350E07A01FFEFEF1AFF0A3E
:1041F0002DB73EB72E193F090FB6F8943EBF0FBE3C
:104200002DBF0DB71EB70F5F1F4FEDB7FEB78183F0
:10421000B601C80101960E94C330F4018381A70151
:10422000B80180640E9426120FB6F894BEBE0FBE7D
:10423000ADBEDF91CF911F910F91FF90EF90DF9076
:10424000CF90BF90AF909F908F9008959091B603BC
:10425000611103C0891720F108958917E8F7E82F45
:10426000E695E695E6952091B3033091B403E20F0D
:10427000F32FF11D282F277081E090E0A0E0B0E03F
:1042800004C0880F991FAA1FBB1F2A95D2F720814F
:10429000822B80838091B5038823F1F20C948F1FC9
:1042A000E82FE695E695E6952091B3033091B403A7
:1042B000E20FF32FF11D282F277081E090E0A0E09E
:1042C000B0E004C0880F991FAA1FBB1F2A95D2F720
:1042D00080959081892380838091B5038111DECF01
:1042E00008951F920F920FB60F9211248F939F93F0
:1042F0008091E1009091E100937F9093E10083FF32
:104300000FC01092E90091E09093EB001092EC0046
:1043100092E39093ED001092380398E09093F000B0
:1043200082FF1AC093E09093E9009091F2009923E4
:1043300019F09AE39093E80090919D01992341F040
:1043400090919D01915090939D01911101C00000A9
:104350009091370391111CC084FD24C080FF11C0CF
:104360008091E2008E7E80618093E2008091E10086
:104370008E7E8093E10080919E018E7E816080938D
:104380009E019F918F910F900FBE0F901F901895D7
:10439000909137039150909337039111DDCF000036
:1043A00084FFDCCF8091E2008E7E81608093E2000A
:1043B0008091E1008F7E8093E10080919E018E7E4E
:1043C000806180939E019F918F910F900FBE0F90FF
:1043D0001F9018951F920F920FB60F921124CF9233
:1043E000DF92EF92FF920F931F932F933F934F9380
:1043F0005F936F937F938F939F93AF93BF93EF934D
:10440000FF93CF93DF93CDB7DEB76C97DEBFCDBF01
:104410001092E9008091E80083FF2EC0FE0175969E
:104420009E01235E3F4F8091F10080833196E21719
:10443000F307C9F7000084E68093370382EF809387
:10444000E8009D8997FD37C08EEF8093E800892FA3
:10445000807609F06FC08E894F89588D2F89188D0D
:10446000811132C0903809F4E3C01092F10010922B
:10447000F1008EEF8093E8006C960FB6F894DEBFE3
:104480000FBECDBFDF91CF91FF91EF91BF91AF9163
:104490009F918F917F916F915F914F913F912F915C
:1044A0001F910F91FF90EF90DF90CF900F900FBE74
:1044B0000F901F9018958091E80080FDC8CF8091E3
:1044C000E80080FFF8CFC3CF813009F4B8C0833053
:1044D00009F4D7C0853009F45BC0863009F4E8C020
:1044E000873009F451C0883009F41EC1893009F6BB
:1044F000937009F049C0EDE0F1E081E031E026E39E
:104500009191992371F08093E9003093EB00DF01E2
:1045100011979C919093EC002093ED008F5F873072
:1045200079F78EE78093EA001092EA008F898093F2
:1045300038039FCF8B8D9C8D1092E90010929C01C7
:1045400010929B0190939A0180939901898D882301
:1045500039F10E941A0FFC01028113810115110526
:1045600099F0D801ED91FC910190F081E02DBE0110
:104570006B5E7F4FC801099581117BCFF8010085E3
:1045800011850115110569F781E28093EB0074CF65
:104590008091E80080FFFCCF20682093E30069CF82
:1045A0009E898D89813A09F478C0813269F7933206
:1045B00009F4ADC0903209F44EC0923209F059CFDF
:1045C0008F8980930B01EEEFFFE7859194918B3FEC
:1045D0009C4D09F43EC1E0E0F8E080E098E04091B5
:1045E0000401509105016091060170910701403B63
:1045F00054406105710509F4DBC020813181273702
:10460000374709F036CFA8952091600028612093A4
:10461000600020919801209360008E3F9A4009F439
:104620001DC18091FE0A9091FF0A9183808321CF62
:1046300080919F018093F1001092F1001ACF9111A7
:1046400018CF4130510509F014CF80919F018D7F23
:1046500080939F010ECF8091E80082FFFCCFE4E0C1
:10466000F1E08091F1008083319621E0EB30F20798
:10467000C1F7000084E6809337038BEF8093E80056
:10468000F8CE9111F6CE4130510509F0F2CE80916D
:104690009F01826080939F01ECCE913209F074CF2C
:1046A00047E050E064E071E080E00E94EE0EE1CE71
:1046B000EB8CFC8C1092E90010929C0110929B01F3
:1046C000123009F498C0F0929A01E09299010E9488
:1046D0001A0FDC011296ED90FC90E114F10439F40C
:1046E00027C0F701E084F184E114F10409F1D70156
:1046F000ED91FC910480F581E02DBE016B5E7F4F52
:10470000C7010995009769F30CF0B3CE3DCF8F89AF
:10471000988DB0E0A0E08093000190930101A093F8
:104720000201B0930301A5CE81E08093F100A1CEF8
:10473000113009F498C0133009F026CF8F898823EF
:1047400009F49AC0823009F4A1C0813009F497C0FD
:10475000833009F019CF0E941A0FDC0112960D91D7
:104760001C91FE0131967F016F010EC0D801ED91C1
:10477000FC910680F781E02DB601C8010995C80EAD
:10478000D11CF801008511850115110579F7D601B5
:104790001C92F70101900020E9F73197BF016E19D3
:1047A0007F0940E0C7010E94B70E811162CEECCEB6
:1047B00020910B0120FD21CF8E3F9A4049F080814E
:1047C00091818737980721F09093FF0A8093FE0A22
:1047D00087E797E7918380838091600080939801B9
:1047E00088E19BE00FB6F894A895809360000FBE17
:1047F000909360003ECE10929A01109299010E940F
:104800002E0F1F8299E099831A8391E09E8390EA8C
:1048100098879AEF998720919B0130919C01275F9F
:104820003F4F3C832B838D831092E90010929C01B3
:1048300010929B01F0929A01E092990149E050E0B8
:10484000BE016F5F7F4F80E00E94EE0E0E942E0F30
:1048500010CEEEEFFAE08EEF9AE0C1CE1092FF0A92
:104860001092FE0A06CE60E575E1FB01449150E02E
:1048700080E80E94EE0EFDCD6CE475E1F6CF40E8D5
:1048800067E082E695E10E94B70E8FCF40E86FE0C7
:104890008AE695E10E94B70E88CF1F920F920FB65D
:1048A0000F9211242F933F938F939F93AF93BF93B6
:1048B0008091840190918501A0918601B09187013A
:1048C0003091830126E0230F2D3768F129E8230F6B
:1048D0000396A11DB11D20938301809384019093C1
:1048E0008501A0938601B093870180918801909102
:1048F0008901A0918A01B0918B010196A11DB11D82
:104900008093880190938901A0938A01B0938B01D1
:10491000BF91AF919F918F913F912F910F900FBEBB
:104920000F901F9018950296A11DB11DD4CFEF9244
:10493000FF920F931F93CF93DF93CDB7DEB7C65986
:10494000D1090FB6F894DEBF0FBECDBF10924C0355
:1049500010924B0388EE93E0A0E0B0E080934D030B
:1049600090934E03A0934F03B09350038CE591E0D6
:1049700090934A03809349038FEF9FEF90935603E0
:10498000809355031092B4031092B3031092B703AF
:104990001092BC031092BB038FEF93E09093BE0381
:1049A0008093BD031092C0031092BF039093C20383
:1049B0008093C1031092C4031092C3039093C60363
:1049C0008093C5031092C8031092C7039093CA0343
:1049D0008093C9031092CC031092CB039093CE0323
:1049E0008093CD031092D0031092CF039093D20303
:1049F0008093D1031092D4031092D3039093D603E3
:104A00008093D5031092D8031092D7039093DA03C2
:104A10008093D9031092DC031092DB039093DE03A2
:104A20008093DD031092E0031092DF039093E20382
:104A30008093E1031092E4031092E3039093E60362
:104A40008093E50333E03093E7034DE04093B603F2
:104A50001092B8038BE18093B9031092BA0325E05A
:104A6000298381E08A8399E09B832C83E1EAED83AB
:104A70008E8355E85F83388729879A8759E15B875A
:104A80008C8759E25D874E8755E15F87188A55E22A
:104A9000598B8A8B65E76B8B8C8B55E95D8B4E8BC5
:104AA00045E54F8B188E45E6498F1A8E41E84B8FAE
:104AB00072E07C8F6D8F8E8F5F8F38A349A33AA3EE
:104AC0002BA38CA39DA38EA326E12FA388A780E808
:104AD00089A786E28AA78FEF8BA78FE78CA76DA7A0
:104AE00080E18EA75FA784E088ABE9AB1AAA9BABF5
:104AF00080E38CAB9DAB81E38EAB9FAB83E388AF50
:104B000099AF84E38AAF4BAF7CAF80EC8DAF8EAFB3
:104B10008EE390E00E949E2F7C018EE3FE01319691
:104B2000D70101900D928A95E1F787E090E00E940D
:104B30009E2F8C01FC0111821082F382E2828EE3AF
:104B400090E09583848316820E94EF13DC011B960C
:104B5000ED91FC911C97309711F48EC0F9012081E2
:104B6000318121153105D1F7118300831D968D9177
:104B70009C911E97F80124813581820F931F1E9608
:104B80009C938E931D978091B603982F969596953A
:104B90009695877009F09F5F9093B7031091B703C4
:104BA000812F90E00E949E2F9093B4038093B303D3
:104BB00021E03091B803311101C020E038E0310F1D
:104BC000230F2093E80310929A03109299031092F6
:104BD0009C0310929B0310929E0310929D031092CF
:104BE000A00310929F031092A2031092A1031092AF
:104BF000A4031092A3031092A6031092A50310928F
:104C0000A8031092A7031092AA031092A90310926E
:104C1000AC031092AB031092AE031092AD032FEFD2
:104C20003FEF3093B0032093AF033093B203209350
:104C3000B103112399F030E020E004C08091B30368
:104C40009091B403820F931FFC0110822F5F3F4F9E
:104C50008091B7038217130609F084F7CA56DF4F15
:104C60000FB6F894DEBF0FBECDBFDF91CF911F917D
:104C70000F91FF90EF9008951C961C930E931B9735
:104C800075CFCF93DF93CDB7DEB728970FB6F894E3
:104C9000DEBF0FBECDBF789484B5826084BD84B57D
:104CA000816084BD85B5826085BD85B5816085BD27
:104CB00080916E00816080936E00109281008091DF
:104CC0008100826080938100809181008160809367
:104CD00081008091800081608093800080919100AC
:104CE0008260809391008091910081608093910017
:104CF000809190008160809390008091C1008460D9
:104D00008093C1008091C10082608093C100809136
:104D1000C10081608093C1008091C3008160809355
:104D2000C3008091C00082608093C0008091C20067
:104D300081608093C20080917A00846080937A00C1
:104D400080917A00826080937A0080917A008E7FD1
:104D500080937A0080917A00806880937A00109224
:104D6000380310929F0110929E018091D7008160BC
:104D70008093D70080EA8093D80089B58F7E89BD63
:104D800089B5826089BD09B400FEFDCF61E070E0A5
:104D900080E090E00E94B5118091D8008F7C806106
:104DA0008093D8008091E000807F8093E000809124
:104DB000E1008E7E8093E1008DE08093E2000000B0
:104DC0001092A0011092A1011092A2011092A301D1
:104DD0001092D60206E313E026EF822E22E0922EF6
:104DE000C401865F92400E94FF2ED4018D934D0135
:104DF0000A171B07A9F725E333E096EF492E92E047
:104E0000592E80E0F20191912F01890F2E173F0753
:104E1000C9F790913503891309C08091F6029091EA
:104E2000F7028733934111F40C94A42E87E393E1A6
:104E30009093F7028093F6021092F80248EC50E04B
:104E40005093FA024093F90220E233E03093FC02DF
:104E50002093FB0284EF91E09093FE028093FD0289
:104E6000509300034093FF02309302032093010309
:104E7000909304038093030388E59BE190930603DA
:104E80008093050380E398E0A0E0B0E080930703FF
:104E900090930803A0930903B0930A0380E394E07E
:104EA000A0E0B0E080930B0390930C03A0930D035C
:104EB000B0930E0310920F0310921003109211037F
:104EC0001092120310921303109214031092150300
:104ED00010921603109217031092180310921903E0
:104EE00010921A0310921B0310921C0310921D03C0
:104EF00010921E0310921F031092200310922103A0
:104F00001092220380EB90E0A0E0B0E080932303B6
:104F100090932403A0932503B093260380E390E8A5
:104F2000A0E0B0E08093270390932803A093290387
:104F3000B0932A038FEF80932B038FEE9EEB909319
:104F40002D0380932C03EEE2F3E087E0DF011D9256
:104F50008A95E9F781E08093D60262E086E10E94BB
:104F6000AD1061E087E10E94AD1060E08CE00E942E
:104F7000AD1061E08DE00E94AD101092A50110927D
:104F8000A6011092A7011092A8011092A9011092F7
:104F9000A40161E087E10E94791061E08DE00E9448
:104FA00079101092CF011092CE011092D001109280
:104FB000D5021092AB011092CD011092CC0110924B
:104FC000D1011092D2011092D3011092D4010FEFAF
:104FD0001FEF10935603009355030E94A51E61E036
:104FE00088E00E94AD1061E089E00E94AD1060E0B1
:104FF0008AE00E94AD1060E085E10E94AD10109241
:10500000B5030E948F1F1093BC030093BB0381E084
:1050100090E09093BE038093BD031093C003009370
:10502000BF039093C2038093C1034091FD0250914E
:10503000FE028091FB029091FC02841B950B209153
:10504000F9023091FA02241B350B3093C8032093E8
:10505000C7039093CA038093C903409103035091FF
:1050600004038091010390910203841B950B20910E
:10507000FF0230910003241B350B3093CC032093A7
:10508000CB039093CE038093CD0381E080933603CE
:105090001092AA0188E19EE00FB6F894A89580933B
:1050A00060000FBE9093600086EF92E01C01209498
:1050B000309480E0A82E80E0B82E6624639480911E
:1050C000D60281116AC08091A9018111A9C086E12F
:1050D0000E944910892B09F046C21091D50216C0D2
:1050E00089E493E00E94BB0FE12FF0E0EB52FE4F0A
:1050F00080830093D5020E9419136093D1017093AD
:10510000D2018093D3019093D401102F89E493E0CE
:105110000E94D90F01E0010F181619060CF3E09157
:10512000D001E11709F424C28091CE019091CF0102
:105130008130910509F435C208F458C20297E9F4A8
:105140008091AC01F0E0EB52FE4F20819091CC01B8
:1051500029138BC2853108F4AEC28093390382E0F3
:1051600080933A030E94780F1092CF011092CE01E3
:105170008091D0018F5F8093D0018091360381119F
:105180007AC0A895A114B10409F499CF0E94000037
:105190008091D602882309F496CF0E9419130091BA
:1051A000A0011091A1012091A2013091A301601BE7
:1051B000710B820B930B693B7B408105910508F4D1
:1051C00082CFE6EFF2E080E09191890F4E165F0604
:1051D000D9F78093350306EF12E0F801D1908F01E3
:1051E0007101EE0EFF1EC7010E94FF2ED81621F09E
:1051F0006D2DC7010E94072F8016910671F710923E
:10520000D6020E9419136093A0017093A1018093AC
:10521000A2019093A3018091A901882309F457CF9B
:105220000E941913603177428105910508F455CF2A
:10523000C090A501D090A601E090A701F090A80130
:10524000C114D104E104F10409F06EC186E10E94A9
:105250004910892B09F441CF60E08DE00E9479105C
:105260000E9419136093A5017093A6018093A70172
:105270009093A80132CFCE0101960E94DF1EC98013
:10528000DA80EB80FC808091070390910803A09165
:105290000903B0910A030097A105B10561F0B701B8
:1052A000A601482359236A237B2384179507A60761
:1052B000B70709F468C480910B0390910C03A09187
:1052C0000D03B0910E030097A105B10561F0B70180
:1052D000A601482359236A237B2384179507A60731
:1052E000B70709F473C480910F0390911003A09144
:1052F0001103B09112030097A105B10561F0B70148
:10530000A601482359236A237B2384179507A60700
:10531000B70709F452C48091130390911403A0912C
:105320001503B09116030097A105B10561F0B7010F
:10533000A601482359236A237B2384179507A607D0
:10534000B70709F44EC48091170390911803A091F8
:105350001903B0911A030097A105B10561F0B701D7
:10536000A601482359236A237B2384179507A607A0
:10537000B70709F459C480911B0390911C03A091B5
:105380001D03B0911E030097A105B10561F0B7019F
:10539000A601482359236A237B2384179507A60770
:1053A000B70709F458C480911F0390912003A0917E
:1053B0002103B09122030097A105B10561F0B70167
:1053C000A601482359236A237B2384179507A60740
:1053D000B70709F41DC410929A03109299038091A3
:1053E000B50381114BC110929C0310929B0310E0F6
:1053F00000E009C08BE00E942621FFE00F1709F4AE
:1054000016C10F5F1F4FD701C601002E04C0B6950D
:10541000A795979587950A94D2F7BC016170772775
:10542000EFEFE00FEF3030F7F0E0E75EF54D0C9472
:10543000842F8C2A882A842A802A7C2A782A632A24
:10544000672A522A412A302A2C2A282A902A142BE9
:1054500082E00E942621D5CF83E00E942621D1CF71
:10546000672B09F4CECFEFEFFFEFF0939C03E093AF
:105470009B038091B503882309F4C3CF0E948F1F3B
:10548000C0CF672B09F4BDCF81E090E090939C03DF
:1054900080939B038091B503882309F4B2CF0E94C7
:1054A0008F1FAFCF672B09F4ACCFAFEFBFEFB09337
:1054B0009A03A09399038091B503882309F4A1CF9F
:1054C0000E948F1F9ECF84E00E9426219ACF672BD7
:1054D00009F497CFE1E0F0E0F0939A03E0939903A9
:1054E0008091B503882309F48CCF0E948F1F89CF48
:1054F00085E00E94262185CF86E00E94262181CF6B
:1055000087E00E9426217DCF88E00E94262179CF66
:1055100089E00E94262175CF8AE00E94262171CF62
:1055200081E00E9426216DCF8CE00E944910892BDA
:1055300021F460E087E10E94791086E10E94491021
:10554000892B09F4FBC28091A401811105C30E943B
:1055500019136C197D098E099F0961317742810504
:10556000910508F4BACD60E087E10E947910B5CDCD
:105570000E9419130091D1011091D2012091D30101
:105580003091D401601B710B820B930B6333710557
:105590008105910508F4F1CD1092CF011092CE0152
:1055A000ECCD8091AB01AE2FB0E0AB52BE4F9C91E1
:1055B000A82FB0E0A455BE4F9C938F5F8093AB01A2
:1055C0008091CC01890F8093CC018091CD018150D5
:1055D0008093CD01811106C082E090E09093CF01CD
:1055E0008093CE01EF5FE093D001C7CDAE2FB0E046
:1055F000AB52BE4F8C918531A8F7A82FB0E0AD5BC0
:10560000BE4F9C919093CD018093CC018093AC01CF
:105610006092AB01992309F48AC281E090E09093F3
:10562000CF018093CE01DECF80E00E9426218D81C4
:105630009E819093A00380939F038091B503811175
:105640002BC08F8198859093A2038093A1036E2D28
:1056500061708CE00E9426210E948F1F6AE070E03A
:1056600080E090E00E94B5118CCD8093390393E0E7
:1056700090933A0382E00E94780F76CD0E948F1FAC
:105680008091B50310929C0310929B03882309F428
:10569000AECE0E948F1FABCE0E948F1F8091B503AC
:1056A0002F8138853093A2032093A103882379F2B8
:1056B0000E948F1FCCCFE82FF0E0EF59F44D0C94EF
:1056C000842F132C092CF62BE92B922C8D2C7C2C5F
:1056D0006B2C5E2C4F2C422C322C892D302D182D0A
:1056E000072D8E2DDC2B982B762B242C23E1209359
:1056F0003903E091AD01E93008F0D7C2E150E8305C
:1057000008F4C6C280910703909108032091090311
:1057100030910A0310923A0330933B0320933C03E9
:1057200090933D0380933E0386E00E94780F1CCD4A
:105730008091AE0190E0B0E0A0E0B82FAA279927B1
:1057400088274091AF0150E070E060E0BA01552732
:105750004427840F951FA61FB71F2091B101820F08
:10576000911DA11DB11D4091B00150E0542F44275F
:10577000052E000C660B770B840F951FA61FB71F15
:10578000E2E1E0933903E091AD01E93008F08DC228
:10579000E150E83008F46FC2809307039093080348
:1057A000A0930903B0930A036092D60210923A03C1
:1057B00082E00E94780FD8CC21E120933903109227
:1057C0003A0360923B0360923C0384E00E94780FAE
:1057D000CBCCA3E0A093390310923A0380912B0322
:1057E00080933B0383E00E94780FBECC1091AD0103
:1057F000612F70E083E00E94EE1010932B03609203
:10580000D60282E08093390310923A030E94780F07
:10581000ABCC6092390310923A0382E00E94780F79
:105820000E943315A1CC8091AD01109239038331D0
:1058300009F494C294E090933A0387E380933B0386
:1058400083E00E94780F90CCCE0101960E94DF1E6B
:1058500084E18093390310923A0389819A812B81E4
:105860003C815ACF84E10E9493112BE020933903AD
:1058700010923A0390933B0380933C0384E00E9490
:10588000780F72CC8AE08093390310923A038091AA
:10589000F80280933B0383E00E94780F65CC8091EF
:1058A000AD018093F8026092D60289E080933903BB
:1058B00010923A0382E00E94780F56CC88E08093E1
:1058C000390310923A038091AA0180933B0383E04D
:1058D0000E94780F49CC6091AD016093AA0170E0FD
:1058E0008BE00E94EE1087E08093390310923A0318
:1058F00082E00E94780F38CC81E09091AD01911147
:1059000001C080E08093A90186E080933903109262
:105910003A0382E00E94780F27CC82E10E94931123
:1059200025E0A4CF1091AE010091AD0160E082E0CE
:105930000E9479105C985F985C9A5F9A5C988BB132
:105940008F76982F906807FF8BB95C9A9BB906FFFA
:105950008BB95C9A9BB905FF8BB95C9A9BB904FF24
:105960008BB95C9A9BB903FF8BB95C9A9BB902FF18
:105970008BB95C9A9BB901FF8BB95C9A9BB900FF0C
:105980008BB95C9A9BB9112309F434C0EFEAF1E0BA
:105990008FEF810F90E080559E4F31915C985F9A18
:1059A0005C9A5C982BB12F76422F406837FF2BB959
:1059B0005C9A4BB936FF2BB95C9A4BB935FF2BB9C2
:1059C0005C9A4BB934FF2BB95C9A4BB933FF2BB9B6
:1059D0005C9A4BB932FF2BB95C9A4BB931FF2BB9AA
:1059E0005C9A4BB930FF2BB95C9A4BB98E179F0765
:1059F00009F0D3CF61E082E00E947910B4E0B09367
:105A0000390310923A0382E00E94780FADCBFFE099
:105A1000F093390310923A038091050390910603A5
:105A200090933B0380933C0384E00E94780F9CCBCF
:105A30008091AD0190E0982F88272091AE01820FD0
:105A4000911D90930603809305036092D602EEE0C9
:105A5000E093390310923A0382E00E94780F84CBDE
:105A60008091AD0190E0982F88272091AE01820FA0
:105A7000911D9093FA028093F9028091AF0190E01A
:105A8000982F88272091B001820F911D9093FC02DE
:105A90008093FB028091B10190E0982F882720919C
:105AA000B201820F911D9093FE028093FD028091BE
:105AB000B30190E0982F88272091B401820F911DA7
:105AC000909300038093FF028091B50190E0982F9E
:105AD00088272091B601820F911D90930203809335
